{
  "contractName": "Lottery",
  "abi": [
    {
      "inputs": [],
      "payable": false,
      "stateMutability": "nonpayable",
      "type": "constructor"
    },
    {
      "constant": true,
      "inputs": [],
      "name": "lastWinner",
      "outputs": [
        {
          "internalType": "address",
          "name": "",
          "type": "address"
        }
      ],
      "payable": false,
      "stateMutability": "view",
      "type": "function"
    },
    {
      "constant": true,
      "inputs": [],
      "name": "manager",
      "outputs": [
        {
          "internalType": "address",
          "name": "",
          "type": "address"
        }
      ],
      "payable": false,
      "stateMutability": "view",
      "type": "function"
    },
    {
      "constant": true,
      "inputs": [
        {
          "internalType": "uint256",
          "name": "",
          "type": "uint256"
        }
      ],
      "name": "players",
      "outputs": [
        {
          "internalType": "address payable",
          "name": "",
          "type": "address"
        }
      ],
      "payable": false,
      "stateMutability": "view",
      "type": "function"
    },
    {
      "constant": false,
      "inputs": [],
      "name": "enter",
      "outputs": [],
      "payable": true,
      "stateMutability": "payable",
      "type": "function"
    },
    {
      "constant": false,
      "inputs": [],
      "name": "pickWinner",
      "outputs": [],
      "payable": false,
      "stateMutability": "nonpayable",
      "type": "function"
    },
    {
      "constant": true,
      "inputs": [],
      "name": "getPlayers",
      "outputs": [
        {
          "internalType": "address payable[]",
          "name": "",
          "type": "address[]"
        }
      ],
      "payable": false,
      "stateMutability": "view",
      "type": "function"
    }
  ],
  "bytecode": "0x608060405234801561001057600080fd5b50336000806101000a81548173ffffffffffffffffffffffffffffffffffffffff021916908373ffffffffffffffffffffffffffffffffffffffff1602179055506106f7806100606000396000f3fe6080604052600436106100555760003560e01c8063481c6a751461005a5780635d495aea146100b15780638b5b9ccc146100c8578063e97dcb6214610134578063f71d96cb1461013e578063fe188184146101b9575b600080fd5b34801561006657600080fd5b5061006f610210565b604051808273ffffffffffffffffffffffffffffffffffffffff1673ffffffffffffffffffffffffffffffffffffffff16815260200191505060405180910390f35b3480156100bd57600080fd5b506100c6610235565b005b3480156100d457600080fd5b506100dd6103e8565b6040518080602001828103825283818151815260200191508051906020019060200280838360005b83811015610120578082015181840152602081019050610105565b505050509050019250505060405180910390f35b61013c610476565b005b34801561014a57600080fd5b506101776004803603602081101561016157600080fd5b81019080803590602001909291905050506104f1565b604051808273ffffffffffffffffffffffffffffffffffffffff1673ffffffffffffffffffffffffffffffffffffffff16815260200191505060405180910390f35b3480156101c557600080fd5b506101ce61052d565b604051808273ffffffffffffffffffffffffffffffffffffffff1673ffffffffffffffffffffffffffffffffffffffff16815260200191505060405180910390f35b6000809054906101000a900473ffffffffffffffffffffffffffffffffffffffff1681565b6000809054906101000a900473ffffffffffffffffffffffffffffffffffffffff1673ffffffffffffffffffffffffffffffffffffffff163373ffffffffffffffffffffffffffffffffffffffff161461028e57600080fd5b600060018054905061029e610553565b816102a557fe5b069050600181815481106102b557fe5b9060005260206000200160009054906101000a900473ffffffffffffffffffffffffffffffffffffffff1673ffffffffffffffffffffffffffffffffffffffff166108fc479081150290604051600060405180830381858888f19350505050158015610325573d6000803e3d6000fd5b506001818154811061033357fe5b9060005260206000200160009054906101000a900473ffffffffffffffffffffffffffffffffffffffff16600260006101000a81548173ffffffffffffffffffffffffffffffffffffffff021916908373ffffffffffffffffffffffffffffffffffffffff16021790555060006040519080825280602002602001820160405280156103ce5781602001602082028038833980820191505090505b50600190805190602001906103e49291906105f5565b5050565b6060600180548060200260200160405190810160405280929190818152602001828054801561046c57602002820191906000526020600020905b8160009054906101000a900473ffffffffffffffffffffffffffffffffffffffff1673ffffffffffffffffffffffffffffffffffffffff1681526020019060010190808311610422575b5050505050905090565b662386f26fc10000341161048957600080fd5b60013390806001815401808255809150509060018203906000526020600020016000909192909190916101000a81548173ffffffffffffffffffffffffffffffffffffffff021916908373ffffffffffffffffffffffffffffffffffffffff16021790555050565b600181815481106104fe57fe5b906000526020600020016000915054906101000a900473ffffffffffffffffffffffffffffffffffffffff1681565b600260009054906101000a900473ffffffffffffffffffffffffffffffffffffffff1681565b6000444260016040516020018084815260200183815260200182805480156105d057602002820191906000526020600020905b8160009054906101000a900473ffffffffffffffffffffffffffffffffffffffff1673ffffffffffffffffffffffffffffffffffffffff1681526020019060010190808311610586575b505093505050506040516020818303038152906040528051906020012060001c905090565b82805482825590600052602060002090810192821561066e579160200282015b8281111561066d5782518260006101000a81548173ffffffffffffffffffffffffffffffffffffffff021916908373ffffffffffffffffffffffffffffffffffffffff16021790555091602001919060010190610615565b5b50905061067b919061067f565b5090565b6106bf91905b808211156106bb57600081816101000a81549073ffffffffffffffffffffffffffffffffffffffff021916905550600101610685565b5090565b9056fea265627a7a72315820ce65fdf99a558533d6443625a4b5baabe89f73559c268c2a2f91cc975251f27e64736f6c63430005100032",
  "source": "pragma solidity ^0.5.16;\n\ncontract Lottery{\n  address public manager;\n  address payable[] public players;\n  address public lastWinner;\n\n  constructor() public{\n    manager = msg.sender;\n  }\n\n  function enter() public payable{\n    require(msg.value > .01 ether);\n    players.push(msg.sender);\n  }\n\n  function random() private view returns(uint){\n    return uint(keccak256(abi.encodePacked(block.difficulty, now, players))); // ou sha3();\n    // Eu poderia melhorar esta funcao injectando o clock da maquina, por ex\n    // Esta funcoa nao e muito segura para gerar um numero aleatorio\n  }\n\n  function pickWinner() public restricted{\n    uint index = random() % players.length;\n    players[index].transfer(address(this).balance);\n    lastWinner = players[index];\n    players = new address payable[](0);\n  }\n\n  modifier restricted(){\n    require(msg.sender == manager);\n    _;\n  }\n\n  function getPlayers() public view returns(address payable[] memory){\n    return players;\n  }\n}\n",
  "sourcePath": "/home/garibaldi/Documents/Crypto/Apps/lottery/contracts/Lottery.sol",
  "compiler": {
    "name": "solc",
    "version": "0.5.16+commit.9c3226ce.Emscripten.clang"
  },
  "schemaVersion": "3.3.1",
  "updatedAt": "2020-11-01T03:59:16.245Z",
  "networkType": "ethereum",
  "devdoc": {
    "methods": {}
  },
  "userdoc": {
    "methods": {}
  }
}